{
  "contractName": "BlockHead",
  "abi": [
    {
      "inputs": [],
      "stateMutability": "nonpayable",
      "type": "constructor"
    },
    {
      "anonymous": false,
      "inputs": [
        {
          "indexed": true,
          "internalType": "address",
          "name": "owner",
          "type": "address"
        },
        {
          "indexed": true,
          "internalType": "address",
          "name": "approved",
          "type": "address"
        },
        {
          "indexed": true,
          "internalType": "uint256",
          "name": "tokenId",
          "type": "uint256"
        }
      ],
      "name": "Approval",
      "type": "event"
    },
    {
      "anonymous": false,
      "inputs": [
        {
          "indexed": true,
          "internalType": "address",
          "name": "owner",
          "type": "address"
        },
        {
          "indexed": true,
          "internalType": "address",
          "name": "operator",
          "type": "address"
        },
        {
          "indexed": false,
          "internalType": "bool",
          "name": "approved",
          "type": "bool"
        }
      ],
      "name": "ApprovalForAll",
      "type": "event"
    },
    {
      "anonymous": false,
      "inputs": [
        {
          "indexed": true,
          "internalType": "address",
          "name": "previousOwner",
          "type": "address"
        },
        {
          "indexed": true,
          "internalType": "address",
          "name": "newOwner",
          "type": "address"
        }
      ],
      "name": "OwnershipTransferred",
      "type": "event"
    },
    {
      "anonymous": false,
      "inputs": [
        {
          "indexed": true,
          "internalType": "address",
          "name": "from",
          "type": "address"
        },
        {
          "indexed": true,
          "internalType": "address",
          "name": "to",
          "type": "address"
        },
        {
          "indexed": true,
          "internalType": "uint256",
          "name": "tokenId",
          "type": "uint256"
        }
      ],
      "name": "Transfer",
      "type": "event"
    },
    {
      "inputs": [
        {
          "internalType": "address",
          "name": "to",
          "type": "address"
        },
        {
          "internalType": "uint256",
          "name": "tokenId",
          "type": "uint256"
        }
      ],
      "name": "approve",
      "outputs": [],
      "stateMutability": "nonpayable",
      "type": "function"
    },
    {
      "inputs": [
        {
          "internalType": "address",
          "name": "owner",
          "type": "address"
        }
      ],
      "name": "balanceOf",
      "outputs": [
        {
          "internalType": "uint256",
          "name": "",
          "type": "uint256"
        }
      ],
      "stateMutability": "view",
      "type": "function",
      "constant": true
    },
    {
      "inputs": [
        {
          "internalType": "uint256",
          "name": "tokenId",
          "type": "uint256"
        }
      ],
      "name": "getApproved",
      "outputs": [
        {
          "internalType": "address",
          "name": "",
          "type": "address"
        }
      ],
      "stateMutability": "view",
      "type": "function",
      "constant": true
    },
    {
      "inputs": [
        {
          "internalType": "address",
          "name": "owner",
          "type": "address"
        },
        {
          "internalType": "address",
          "name": "operator",
          "type": "address"
        }
      ],
      "name": "isApprovedForAll",
      "outputs": [
        {
          "internalType": "bool",
          "name": "",
          "type": "bool"
        }
      ],
      "stateMutability": "view",
      "type": "function",
      "constant": true
    },
    {
      "inputs": [],
      "name": "name",
      "outputs": [
        {
          "internalType": "string",
          "name": "",
          "type": "string"
        }
      ],
      "stateMutability": "view",
      "type": "function",
      "constant": true
    },
    {
      "inputs": [],
      "name": "owner",
      "outputs": [
        {
          "internalType": "address",
          "name": "",
          "type": "address"
        }
      ],
      "stateMutability": "view",
      "type": "function",
      "constant": true
    },
    {
      "inputs": [
        {
          "internalType": "uint256",
          "name": "tokenId",
          "type": "uint256"
        }
      ],
      "name": "ownerOf",
      "outputs": [
        {
          "internalType": "address",
          "name": "",
          "type": "address"
        }
      ],
      "stateMutability": "view",
      "type": "function",
      "constant": true
    },
    {
      "inputs": [],
      "name": "renounceOwnership",
      "outputs": [],
      "stateMutability": "nonpayable",
      "type": "function"
    },
    {
      "inputs": [
        {
          "internalType": "address",
          "name": "from",
          "type": "address"
        },
        {
          "internalType": "address",
          "name": "to",
          "type": "address"
        },
        {
          "internalType": "uint256",
          "name": "tokenId",
          "type": "uint256"
        }
      ],
      "name": "safeTransferFrom",
      "outputs": [],
      "stateMutability": "nonpayable",
      "type": "function"
    },
    {
      "inputs": [
        {
          "internalType": "address",
          "name": "from",
          "type": "address"
        },
        {
          "internalType": "address",
          "name": "to",
          "type": "address"
        },
        {
          "internalType": "uint256",
          "name": "tokenId",
          "type": "uint256"
        },
        {
          "internalType": "bytes",
          "name": "_data",
          "type": "bytes"
        }
      ],
      "name": "safeTransferFrom",
      "outputs": [],
      "stateMutability": "nonpayable",
      "type": "function"
    },
    {
      "inputs": [
        {
          "internalType": "address",
          "name": "operator",
          "type": "address"
        },
        {
          "internalType": "bool",
          "name": "approved",
          "type": "bool"
        }
      ],
      "name": "setApprovalForAll",
      "outputs": [],
      "stateMutability": "nonpayable",
      "type": "function"
    },
    {
      "inputs": [],
      "name": "symbol",
      "outputs": [
        {
          "internalType": "string",
          "name": "",
          "type": "string"
        }
      ],
      "stateMutability": "view",
      "type": "function",
      "constant": true
    },
    {
      "inputs": [
        {
          "internalType": "uint256",
          "name": "index",
          "type": "uint256"
        }
      ],
      "name": "tokenByIndex",
      "outputs": [
        {
          "internalType": "uint256",
          "name": "",
          "type": "uint256"
        }
      ],
      "stateMutability": "view",
      "type": "function",
      "constant": true
    },
    {
      "inputs": [
        {
          "internalType": "address",
          "name": "owner",
          "type": "address"
        },
        {
          "internalType": "uint256",
          "name": "index",
          "type": "uint256"
        }
      ],
      "name": "tokenOfOwnerByIndex",
      "outputs": [
        {
          "internalType": "uint256",
          "name": "",
          "type": "uint256"
        }
      ],
      "stateMutability": "view",
      "type": "function",
      "constant": true
    },
    {
      "inputs": [],
      "name": "totalSupply",
      "outputs": [
        {
          "internalType": "uint256",
          "name": "",
          "type": "uint256"
        }
      ],
      "stateMutability": "view",
      "type": "function",
      "constant": true
    },
    {
      "inputs": [
        {
          "internalType": "address",
          "name": "from",
          "type": "address"
        },
        {
          "internalType": "address",
          "name": "to",
          "type": "address"
        },
        {
          "internalType": "uint256",
          "name": "tokenId",
          "type": "uint256"
        }
      ],
      "name": "transferFrom",
      "outputs": [],
      "stateMutability": "nonpayable",
      "type": "function"
    },
    {
      "inputs": [
        {
          "internalType": "address",
          "name": "newOwner",
          "type": "address"
        }
      ],
      "name": "transferOwnership",
      "outputs": [],
      "stateMutability": "nonpayable",
      "type": "function"
    },
    {
      "inputs": [
        {
          "internalType": "bytes4",
          "name": "interfaceId",
          "type": "bytes4"
        }
      ],
      "name": "supportsInterface",
      "outputs": [
        {
          "internalType": "bool",
          "name": "",
          "type": "bool"
        }
      ],
      "stateMutability": "view",
      "type": "function",
      "constant": true
    },
    {
      "inputs": [],
      "name": "mint",
      "outputs": [],
      "stateMutability": "payable",
      "type": "function",
      "payable": true
    },
    {
      "inputs": [
        {
          "internalType": "uint256",
          "name": "_tokenId",
          "type": "uint256"
        }
      ],
      "name": "tokenURI",
      "outputs": [
        {
          "internalType": "string",
          "name": "",
          "type": "string"
        }
      ],
      "stateMutability": "pure",
      "type": "function",
      "constant": true
    },
    {
      "inputs": [],
      "name": "test",
      "outputs": [
        {
          "internalType": "string",
          "name": "",
          "type": "string"
        }
      ],
      "stateMutability": "pure",
      "type": "function",
      "constant": true
    },
    {
      "inputs": [
        {
          "internalType": "string",
          "name": "a",
          "type": "string"
        },
        {
          "internalType": "string",
          "name": "b",
          "type": "string"
        }
      ],
      "name": "Concatenate",
      "outputs": [
        {
          "internalType": "string",
          "name": "concatenatedString",
          "type": "string"
        }
      ],
      "stateMutability": "pure",
      "type": "function",
      "constant": true
    },
    {
      "inputs": [
        {
          "internalType": "uint256",
          "name": "_i",
          "type": "uint256"
        }
      ],
      "name": "UintToString",
      "outputs": [
        {
          "internalType": "string",
          "name": "uintAsString",
          "type": "string"
        }
      ],
      "stateMutability": "pure",
      "type": "function",
      "constant": true
    }
  ],
  "bytecode": "0x60806040526001600b553480156200001657600080fd5b506040518060400160405280600981526020017f426c6f636b4865616400000000000000000000000000000000000000000000008152506040518060400160405280600281526020017f424800000000000000000000000000000000000000000000000000000000000081525081600090805190602001906200009b929190620001ab565b508060019080519060200190620000b4929190620001ab565b505050620000d7620000cb620000dd60201b60201c565b620000e560201b60201c565b620002c0565b600033905090565b6000600a60009054906101000a900473ffffffffffffffffffffffffffffffffffffffff16905081600a60006101000a81548173ffffffffffffffffffffffffffffffffffffffff021916908373ffffffffffffffffffffffffffffffffffffffff1602179055508173ffffffffffffffffffffffffffffffffffffffff168173ffffffffffffffffffffffffffffffffffffffff167f8be0079c531659141344cd1fd0a4f28419497f9722a3daafe3b4186f6b6457e060405160405180910390a35050565b828054620001b9906200028a565b90600052602060002090601f016020900481019282620001dd576000855562000229565b82601f10620001f857805160ff191683800117855562000229565b8280016001018555821562000229579182015b82811115620002285782518255916020019190600101906200020b565b5b5090506200023891906200023c565b5090565b5b80821115620002575760008160009055506001016200023d565b5090565b7f4e487b7100000000000000000000000000000000000000000000000000000000600052602260045260246000fd5b60006002820490506001821680620002a357607f821691505b60208210811415620002ba57620002b96200025b565b5b50919050565b6137eb80620002d06000396000f3fe6080604052600436106101405760003560e01c806370a08231116100b6578063b88d4fde1161006f578063b88d4fde14610461578063c87b56dd1461048a578063e985e9c5146104c7578063f2fde38b14610504578063f8a8fd6d1461052d578063f8dc05581461055857610140565b806370a0823114610351578063715018a61461038e5780638da5cb5b146103a557806395d89b41146103d0578063a22cb465146103fb578063a76d54ff1461042457610140565b806318160ddd1161010857806318160ddd1461021d57806323b872dd146102485780632f745c591461027157806342842e0e146102ae5780634f6ccce7146102d75780636352211e1461031457610140565b806301ffc9a71461014557806306fdde0314610182578063081812fc146101ad578063095ea7b3146101ea5780631249c58b14610213575b600080fd5b34801561015157600080fd5b5061016c600480360381019061016791906123ca565b610595565b6040516101799190612412565b60405180910390f35b34801561018e57600080fd5b506101976105a7565b6040516101a491906124c6565b60405180910390f35b3480156101b957600080fd5b506101d460048036038101906101cf919061251e565b610639565b6040516101e1919061258c565b60405180910390f35b3480156101f657600080fd5b50610211600480360381019061020c91906125d3565b6106be565b005b61021b6107d6565b005b34801561022957600080fd5b5061023261083e565b60405161023f9190612622565b60405180910390f35b34801561025457600080fd5b5061026f600480360381019061026a919061263d565b61084b565b005b34801561027d57600080fd5b50610298600480360381019061029391906125d3565b6108ab565b6040516102a59190612622565b60405180910390f35b3480156102ba57600080fd5b506102d560048036038101906102d0919061263d565b610950565b005b3480156102e357600080fd5b506102fe60048036038101906102f9919061251e565b610970565b60405161030b9190612622565b60405180910390f35b34801561032057600080fd5b5061033b6004803603810190610336919061251e565b6109e1565b604051610348919061258c565b60405180910390f35b34801561035d57600080fd5b5061037860048036038101906103739190612690565b610a93565b6040516103859190612622565b60405180910390f35b34801561039a57600080fd5b506103a3610b4b565b005b3480156103b157600080fd5b506103ba610bd3565b6040516103c7919061258c565b60405180910390f35b3480156103dc57600080fd5b506103e5610bfd565b6040516103f291906124c6565b60405180910390f35b34801561040757600080fd5b50610422600480360381019061041d91906126e9565b610c8f565b005b34801561043057600080fd5b5061044b6004803603810190610446919061251e565b610ca5565b60405161045891906124c6565b60405180910390f35b34801561046d57600080fd5b506104886004803603810190610483919061285e565b610e2e565b005b34801561049657600080fd5b506104b160048036038101906104ac919061251e565b610e90565b6040516104be91906124c6565b60405180910390f35b3480156104d357600080fd5b506104ee60048036038101906104e991906128e1565b610f01565b6040516104fb9190612412565b60405180910390f35b34801561051057600080fd5b5061052b60048036038101906105269190612690565b610f95565b005b34801561053957600080fd5b5061054261108d565b60405161054f91906124c6565b60405180910390f35b34801561056457600080fd5b5061057f600480360381019061057a91906129c2565b6110ca565b60405161058c91906124c6565b60405180910390f35b60006105a082611265565b9050919050565b6060600080546105b690612a69565b80601f01602080910402602001604051908101604052809291908181526020018280546105e290612a69565b801561062f5780601f106106045761010080835404028352916020019161062f565b820191906000526020600020905b81548152906001019060200180831161061257829003601f168201915b5050505050905090565b6000610644826112df565b610683576040517f08c379a000000000000000000000000000000000000000000000000000000000815260040161067a90612b0d565b60405180910390fd5b6004600083815260200190815260200160002060009054906101000a900473ffffffffffffffffffffffffffffffffffffffff169050919050565b60006106c9826109e1565b90508073ffffffffffffffffffffffffffffffffffffffff168373ffffffffffffffffffffffffffffffffffffffff16141561073a576040517f08c379a000000000000000000000000000000000000000000000000000000000815260040161073190612b9f565b60405180910390fd5b8073ffffffffffffffffffffffffffffffffffffffff1661075961134b565b73ffffffffffffffffffffffffffffffffffffffff16148061078857506107878161078261134b565b610f01565b5b6107c7576040517f08c379a00000000000000000000000000000000000000000000000000000000081526004016107be90612c31565b60405180910390fd5b6107d18383611353565b505050565b606f600b54111561081c576040517f08c379a000000000000000000000000000000000000000000000000000000000815260040161081390612c9d565b60405180910390fd5b61083c33600b600081548092919061083390612cec565b9190505561140c565b565b6000600880549050905090565b61085c61085661134b565b8261142a565b61089b576040517f08c379a000000000000000000000000000000000000000000000000000000000815260040161089290612da7565b60405180910390fd5b6108a6838383611508565b505050565b60006108b683610a93565b82106108f7576040517f08c379a00000000000000000000000000000000000000000000000000000000081526004016108ee90612e39565b60405180910390fd5b600660008473ffffffffffffffffffffffffffffffffffffffff1673ffffffffffffffffffffffffffffffffffffffff168152602001908152602001600020600083815260200190815260200160002054905092915050565b61096b83838360405180602001604052806000815250610e2e565b505050565b600061097a61083e565b82106109bb576040517f08c379a00000000000000000000000000000000000000000000000000000000081526004016109b290612ecb565b60405180910390fd5b600882815481106109cf576109ce612eeb565b5b90600052602060002001549050919050565b6000806002600084815260200190815260200160002060009054906101000a900473ffffffffffffffffffffffffffffffffffffffff169050600073ffffffffffffffffffffffffffffffffffffffff168173ffffffffffffffffffffffffffffffffffffffff161415610a8a576040517f08c379a0000000000000000000000000000000000000000000000000000000008152600401610a8190612f8c565b60405180910390fd5b80915050919050565b60008073ffffffffffffffffffffffffffffffffffffffff168273ffffffffffffffffffffffffffffffffffffffff161415610b04576040517f08c379a0000000000000000000000000000000000000000000000000000000008152600401610afb9061301e565b60405180910390fd5b600360008373ffffffffffffffffffffffffffffffffffffffff1673ffffffffffffffffffffffffffffffffffffffff168152602001908152602001600020549050919050565b610b5361134b565b73ffffffffffffffffffffffffffffffffffffffff16610b71610bd3565b73ffffffffffffffffffffffffffffffffffffffff1614610bc7576040517f08c379a0000000000000000000000000000000000000000000000000000000008152600401610bbe9061308a565b60405180910390fd5b610bd1600061176f565b565b6000600a60009054906101000a900473ffffffffffffffffffffffffffffffffffffffff16905090565b606060018054610c0c90612a69565b80601f0160208091040260200160405190810160405280929190818152602001828054610c3890612a69565b8015610c855780601f10610c5a57610100808354040283529160200191610c85565b820191906000526020600020905b815481529060010190602001808311610c6857829003601f168201915b5050505050905090565b610ca1610c9a61134b565b8383611835565b5050565b60606000821415610ced576040518060400160405280600181526020017f30000000000000000000000000000000000000000000000000000000000000008152509050610e29565b600082905060005b60008214610d1f578080610d0890612cec565b915050600a82610d1891906130d9565b9150610cf5565b60008167ffffffffffffffff811115610d3b57610d3a612733565b5b6040519080825280601f01601f191660200182016040528015610d6d5781602001600182028036833780820191505090505b50905060008290505b60008614610e2157600181610d8b919061310a565b90506000600a8088610d9d91906130d9565b610da7919061313e565b87610db2919061310a565b6030610dbe91906131a5565b905060008160f81b905080848481518110610ddc57610ddb612eeb565b5b60200101907effffffffffffffffffffffffffffffffffffffffffffffffffffffffffffff1916908160001a905350600a88610e1891906130d9565b97505050610d76565b819450505050505b919050565b610e3f610e3961134b565b8361142a565b610e7e576040517f08c379a0000000000000000000000000000000000000000000000000000000008152600401610e7590612da7565b60405180910390fd5b610e8a848484846119a2565b50505050565b6060610efa610ebf60405180608001604052806053815260200161376360539139610eba85610ca5565b6110ca565b6040518060400160405280600581526020017f2e6a736f6e0000000000000000000000000000000000000000000000000000008152506110ca565b9050919050565b6000600560008473ffffffffffffffffffffffffffffffffffffffff1673ffffffffffffffffffffffffffffffffffffffff16815260200190815260200160002060008373ffffffffffffffffffffffffffffffffffffffff1673ffffffffffffffffffffffffffffffffffffffff16815260200190815260200160002060009054906101000a900460ff16905092915050565b610f9d61134b565b73ffffffffffffffffffffffffffffffffffffffff16610fbb610bd3565b73ffffffffffffffffffffffffffffffffffffffff1614611011576040517f08c379a00000000000000000000000000000000000000000000000000000000081526004016110089061308a565b60405180910390fd5b600073ffffffffffffffffffffffffffffffffffffffff168173ffffffffffffffffffffffffffffffffffffffff161415611081576040517f08c379a00000000000000000000000000000000000000000000000000000000081526004016110789061324e565b60405180910390fd5b61108a8161176f565b50565b60606040518060400160405280600481526020017f7465737400000000000000000000000000000000000000000000000000000000815250905090565b6060600083905060008390506000815183516110e6919061326e565b67ffffffffffffffff8111156110ff576110fe612733565b5b6040519080825280601f01601f1916602001820160405280156111315781602001600182028036833780820191505090505b5090506000819050600080600090505b85518110156111c95785818151811061115d5761115c612eeb565b5b602001015160f81c60f81b83838061117490612cec565b94508151811061118757611186612eeb565b5b60200101907effffffffffffffffffffffffffffffffffffffffffffffffffffffffffffff1916908160001a90535080806111c190612cec565b915050611141565b600090505b8451811015611256578481815181106111ea576111e9612eeb565b5b602001015160f81c60f81b83838061120190612cec565b94508151811061121457611213612eeb565b5b60200101907effffffffffffffffffffffffffffffffffffffffffffffffffffffffffffff1916908160001a905350808061124e90612cec565b9150506111ce565b82965050505050505092915050565b60007f780e9d63000000000000000000000000000000000000000000000000000000007bffffffffffffffffffffffffffffffffffffffffffffffffffffffff1916827bffffffffffffffffffffffffffffffffffffffffffffffffffffffff191614806112d857506112d7826119fe565b5b9050919050565b60008073ffffffffffffffffffffffffffffffffffffffff166002600084815260200190815260200160002060009054906101000a900473ffffffffffffffffffffffffffffffffffffffff1673ffffffffffffffffffffffffffffffffffffffff1614159050919050565b600033905090565b816004600083815260200190815260200160002060006101000a81548173ffffffffffffffffffffffffffffffffffffffff021916908373ffffffffffffffffffffffffffffffffffffffff160217905550808273ffffffffffffffffffffffffffffffffffffffff166113c6836109e1565b73ffffffffffffffffffffffffffffffffffffffff167f8c5be1e5ebec7d5bd14f71427d1e84f3dd0314c0f7b2291e5b200ac8c7c3b92560405160405180910390a45050565b611426828260405180602001604052806000815250611ae0565b5050565b6000611435826112df565b611474576040517f08c379a000000000000000000000000000000000000000000000000000000000815260040161146b90613336565b60405180910390fd5b600061147f836109e1565b90508073ffffffffffffffffffffffffffffffffffffffff168473ffffffffffffffffffffffffffffffffffffffff1614806114ee57508373ffffffffffffffffffffffffffffffffffffffff166114d684610639565b73ffffffffffffffffffffffffffffffffffffffff16145b806114ff57506114fe8185610f01565b5b91505092915050565b8273ffffffffffffffffffffffffffffffffffffffff16611528826109e1565b73ffffffffffffffffffffffffffffffffffffffff161461157e576040517f08c379a0000000000000000000000000000000000000000000000000000000008152600401611575906133c8565b60405180910390fd5b600073ffffffffffffffffffffffffffffffffffffffff168273ffffffffffffffffffffffffffffffffffffffff1614156115ee576040517f08c379a00000000000000000000000000000000000000000000000000000000081526004016115e59061345a565b60405180910390fd5b6115f9838383611b3b565b611604600082611353565b6001600360008573ffffffffffffffffffffffffffffffffffffffff1673ffffffffffffffffffffffffffffffffffffffff1681526020019081526020016000206000828254611654919061310a565b925050819055506001600360008473ffffffffffffffffffffffffffffffffffffffff1673ffffffffffffffffffffffffffffffffffffffff16815260200190815260200160002060008282546116ab919061326e565b92505081905550816002600083815260200190815260200160002060006101000a81548173ffffffffffffffffffffffffffffffffffffffff021916908373ffffffffffffffffffffffffffffffffffffffff160217905550808273ffffffffffffffffffffffffffffffffffffffff168473ffffffffffffffffffffffffffffffffffffffff167fddf252ad1be2c89b69c2b068fc378daa952ba7f163c4a11628f55a4df523b3ef60405160405180910390a461176a838383611b4b565b505050565b6000600a60009054906101000a900473ffffffffffffffffffffffffffffffffffffffff16905081600a60006101000a81548173ffffffffffffffffffffffffffffffffffffffff021916908373ffffffffffffffffffffffffffffffffffffffff1602179055508173ffffffffffffffffffffffffffffffffffffffff168173ffffffffffffffffffffffffffffffffffffffff167f8be0079c531659141344cd1fd0a4f28419497f9722a3daafe3b4186f6b6457e060405160405180910390a35050565b8173ffffffffffffffffffffffffffffffffffffffff168373ffffffffffffffffffffffffffffffffffffffff1614156118a4576040517f08c379a000000000000000000000000000000000000000000000000000000000815260040161189b906134c6565b60405180910390fd5b80600560008573ffffffffffffffffffffffffffffffffffffffff1673ffffffffffffffffffffffffffffffffffffffff16815260200190815260200160002060008473ffffffffffffffffffffffffffffffffffffffff1673ffffffffffffffffffffffffffffffffffffffff16815260200190815260200160002060006101000a81548160ff0219169083151502179055508173ffffffffffffffffffffffffffffffffffffffff168373ffffffffffffffffffffffffffffffffffffffff167f17307eab39ab6107e8899845ad3d59bd9653f200f220920489ca2b5937696c31836040516119959190612412565b60405180910390a3505050565b6119ad848484611508565b6119b984848484611b50565b6119f8576040517f08c379a00000000000000000000000000000000000000000000000000000000081526004016119ef90613558565b60405180910390fd5b50505050565b60007f80ac58cd000000000000000000000000000000000000000000000000000000007bffffffffffffffffffffffffffffffffffffffffffffffffffffffff1916827bffffffffffffffffffffffffffffffffffffffffffffffffffffffff19161480611ac957507f5b5e139f000000000000000000000000000000000000000000000000000000007bffffffffffffffffffffffffffffffffffffffffffffffffffffffff1916827bffffffffffffffffffffffffffffffffffffffffffffffffffffffff1916145b80611ad95750611ad882611cd8565b5b9050919050565b611aea8383611d42565b611af76000848484611b50565b611b36576040517f08c379a0000000000000000000000000000000000000000000000000000000008152600401611b2d90613558565b60405180910390fd5b505050565b611b46838383611f1c565b505050565b505050565b6000611b718473ffffffffffffffffffffffffffffffffffffffff16612030565b15611ccb578373ffffffffffffffffffffffffffffffffffffffff1663150b7a02611b9a61134b565b8786866040518563ffffffff1660e01b8152600401611bbc94939291906135cd565b6020604051808303816000875af1925050508015611bf857506040513d601f19601f82011682018060405250810190611bf5919061362e565b60015b611c7b573d8060008114611c28576040519150601f19603f3d011682016040523d82523d6000602084013e611c2d565b606091505b50600081511415611c73576040517f08c379a0000000000000000000000000000000000000000000000000000000008152600401611c6a90613558565b60405180910390fd5b805181602001fd5b63150b7a0260e01b7bffffffffffffffffffffffffffffffffffffffffffffffffffffffff1916817bffffffffffffffffffffffffffffffffffffffffffffffffffffffff191614915050611cd0565b600190505b949350505050565b60007f01ffc9a7000000000000000000000000000000000000000000000000000000007bffffffffffffffffffffffffffffffffffffffffffffffffffffffff1916827bffffffffffffffffffffffffffffffffffffffffffffffffffffffff1916149050919050565b600073ffffffffffffffffffffffffffffffffffffffff168273ffffffffffffffffffffffffffffffffffffffff161415611db2576040517f08c379a0000000000000000000000000000000000000000000000000000000008152600401611da9906136a7565b60405180910390fd5b611dbb816112df565b15611dfb576040517f08c379a0000000000000000000000000000000000000000000000000000000008152600401611df290613713565b60405180910390fd5b611e0760008383611b3b565b6001600360008473ffffffffffffffffffffffffffffffffffffffff1673ffffffffffffffffffffffffffffffffffffffff1681526020019081526020016000206000828254611e57919061326e565b92505081905550816002600083815260200190815260200160002060006101000a81548173ffffffffffffffffffffffffffffffffffffffff021916908373ffffffffffffffffffffffffffffffffffffffff160217905550808273ffffffffffffffffffffffffffffffffffffffff16600073ffffffffffffffffffffffffffffffffffffffff167fddf252ad1be2c89b69c2b068fc378daa952ba7f163c4a11628f55a4df523b3ef60405160405180910390a4611f1860008383611b4b565b5050565b611f27838383612053565b600073ffffffffffffffffffffffffffffffffffffffff168373ffffffffffffffffffffffffffffffffffffffff161415611f6a57611f6581612058565b611fa9565b8173ffffffffffffffffffffffffffffffffffffffff168373ffffffffffffffffffffffffffffffffffffffff1614611fa857611fa783826120a1565b5b5b600073ffffffffffffffffffffffffffffffffffffffff168273ffffffffffffffffffffffffffffffffffffffff161415611fec57611fe78161220e565b61202b565b8273ffffffffffffffffffffffffffffffffffffffff168273ffffffffffffffffffffffffffffffffffffffff161461202a5761202982826122df565b5b5b505050565b6000808273ffffffffffffffffffffffffffffffffffffffff163b119050919050565b505050565b6008805490506009600083815260200190815260200160002081905550600881908060018154018082558091505060019003906000526020600020016000909190919091505550565b600060016120ae84610a93565b6120b8919061310a565b905060006007600084815260200190815260200160002054905081811461219d576000600660008673ffffffffffffffffffffffffffffffffffffffff1673ffffffffffffffffffffffffffffffffffffffff168152602001908152602001600020600084815260200190815260200160002054905080600660008773ffffffffffffffffffffffffffffffffffffffff1673ffffffffffffffffffffffffffffffffffffffff168152602001908152602001600020600084815260200190815260200160002081905550816007600083815260200190815260200160002081905550505b6007600084815260200190815260200160002060009055600660008573ffffffffffffffffffffffffffffffffffffffff1673ffffffffffffffffffffffffffffffffffffffff16815260200190815260200160002060008381526020019081526020016000206000905550505050565b60006001600880549050612222919061310a565b905060006009600084815260200190815260200160002054905060006008838154811061225257612251612eeb565b5b90600052602060002001549050806008838154811061227457612273612eeb565b5b9060005260206000200181905550816009600083815260200190815260200160002081905550600960008581526020019081526020016000206000905560088054806122c3576122c2613733565b5b6001900381819060005260206000200160009055905550505050565b60006122ea83610a93565b905081600660008573ffffffffffffffffffffffffffffffffffffffff1673ffffffffffffffffffffffffffffffffffffffff168152602001908152602001600020600083815260200190815260200160002081905550806007600084815260200190815260200160002081905550505050565b6000604051905090565b600080fd5b600080fd5b60007fffffffff0000000000000000000000000000000000000000000000000000000082169050919050565b6123a781612372565b81146123b257600080fd5b50565b6000813590506123c48161239e565b92915050565b6000602082840312156123e0576123df612368565b5b60006123ee848285016123b5565b91505092915050565b60008115159050919050565b61240c816123f7565b82525050565b60006020820190506124276000830184612403565b92915050565b600081519050919050565b600082825260208201905092915050565b60005b8381101561246757808201518184015260208101905061244c565b83811115612476576000848401525b50505050565b6000601f19601f8301169050919050565b60006124988261242d565b6124a28185612438565b93506124b2818560208601612449565b6124bb8161247c565b840191505092915050565b600060208201905081810360008301526124e0818461248d565b905092915050565b6000819050919050565b6124fb816124e8565b811461250657600080fd5b50565b600081359050612518816124f2565b92915050565b60006020828403121561253457612533612368565b5b600061254284828501612509565b91505092915050565b600073ffffffffffffffffffffffffffffffffffffffff82169050919050565b60006125768261254b565b9050919050565b6125868161256b565b82525050565b60006020820190506125a1600083018461257d565b92915050565b6125b08161256b565b81146125bb57600080fd5b50565b6000813590506125cd816125a7565b92915050565b600080604083850312156125ea576125e9612368565b5b60006125f8858286016125be565b925050602061260985828601612509565b9150509250929050565b61261c816124e8565b82525050565b60006020820190506126376000830184612613565b92915050565b60008060006060848603121561265657612655612368565b5b6000612664868287016125be565b9350506020612675868287016125be565b925050604061268686828701612509565b9150509250925092565b6000602082840312156126a6576126a5612368565b5b60006126b4848285016125be565b91505092915050565b6126c6816123f7565b81146126d157600080fd5b50565b6000813590506126e3816126bd565b92915050565b60008060408385031215612700576126ff612368565b5b600061270e858286016125be565b925050602061271f858286016126d4565b9150509250929050565b600080fd5b600080fd5b7f4e487b7100000000000000000000000000000000000000000000000000000000600052604160045260246000fd5b61276b8261247c565b810181811067ffffffffffffffff8211171561278a57612789612733565b5b80604052505050565b600061279d61235e565b90506127a98282612762565b919050565b600067ffffffffffffffff8211156127c9576127c8612733565b5b6127d28261247c565b9050602081019050919050565b82818337600083830152505050565b60006128016127fc846127ae565b612793565b90508281526020810184848401111561281d5761281c61272e565b5b6128288482856127df565b509392505050565b600082601f83011261284557612844612729565b5b81356128558482602086016127ee565b91505092915050565b6000806000806080858703121561287857612877612368565b5b6000612886878288016125be565b9450506020612897878288016125be565b93505060406128a887828801612509565b925050606085013567ffffffffffffffff8111156128c9576128c861236d565b5b6128d587828801612830565b91505092959194509250565b600080604083850312156128f8576128f7612368565b5b6000612906858286016125be565b9250506020612917858286016125be565b9150509250929050565b600067ffffffffffffffff82111561293c5761293b612733565b5b6129458261247c565b9050602081019050919050565b600061296561296084612921565b612793565b9050828152602081018484840111156129815761298061272e565b5b61298c8482856127df565b509392505050565b600082601f8301126129a9576129a8612729565b5b81356129b9848260208601612952565b91505092915050565b600080604083850312156129d9576129d8612368565b5b600083013567ffffffffffffffff8111156129f7576129f661236d565b5b612a0385828601612994565b925050602083013567ffffffffffffffff811115612a2457612a2361236d565b5b612a3085828601612994565b9150509250929050565b7f4e487b7100000000000000000000000000000000000000000000000000000000600052602260045260246000fd5b60006002820490506001821680612a8157607f821691505b60208210811415612a9557612a94612a3a565b5b50919050565b7f4552433732313a20617070726f76656420717565727920666f72206e6f6e657860008201527f697374656e7420746f6b656e0000000000000000000000000000000000000000602082015250565b6000612af7602c83612438565b9150612b0282612a9b565b604082019050919050565b60006020820190508181036000830152612b2681612aea565b9050919050565b7f4552433732313a20617070726f76616c20746f2063757272656e74206f776e6560008201527f7200000000000000000000000000000000000000000000000000000000000000602082015250565b6000612b89602183612438565b9150612b9482612b2d565b604082019050919050565b60006020820190508181036000830152612bb881612b7c565b9050919050565b7f4552433732313a20617070726f76652063616c6c6572206973206e6f74206f7760008201527f6e6572206e6f7220617070726f76656420666f7220616c6c0000000000000000602082015250565b6000612c1b603883612438565b9150612c2682612bbf565b604082019050919050565b60006020820190508181036000830152612c4a81612c0e565b9050919050565b7f736f6c64206f7574000000000000000000000000000000000000000000000000600082015250565b6000612c87600883612438565b9150612c9282612c51565b602082019050919050565b60006020820190508181036000830152612cb681612c7a565b9050919050565b7f4e487b7100000000000000000000000000000000000000000000000000000000600052601160045260246000fd5b6000612cf7826124e8565b91507fffffffffffffffffffffffffffffffffffffffffffffffffffffffffffffffff821415612d2a57612d29612cbd565b5b600182019050919050565b7f4552433732313a207472616e736665722063616c6c6572206973206e6f74206f60008201527f776e6572206e6f7220617070726f766564000000000000000000000000000000602082015250565b6000612d91603183612438565b9150612d9c82612d35565b604082019050919050565b60006020820190508181036000830152612dc081612d84565b9050919050565b7f455243373231456e756d657261626c653a206f776e657220696e646578206f7560008201527f74206f6620626f756e6473000000000000000000000000000000000000000000602082015250565b6000612e23602b83612438565b9150612e2e82612dc7565b604082019050919050565b60006020820190508181036000830152612e5281612e16565b9050919050565b7f455243373231456e756d657261626c653a20676c6f62616c20696e646578206f60008201527f7574206f6620626f756e64730000000000000000000000000000000000000000602082015250565b6000612eb5602c83612438565b9150612ec082612e59565b604082019050919050565b60006020820190508181036000830152612ee481612ea8565b9050919050565b7f4e487b7100000000000000000000000000000000000000000000000000000000600052603260045260246000fd5b7f4552433732313a206f776e657220717565727920666f72206e6f6e657869737460008201527f656e7420746f6b656e0000000000000000000000000000000000000000000000602082015250565b6000612f76602983612438565b9150612f8182612f1a565b604082019050919050565b60006020820190508181036000830152612fa581612f69565b9050919050565b7f4552433732313a2062616c616e636520717565727920666f7220746865207a6560008201527f726f206164647265737300000000000000000000000000000000000000000000602082015250565b6000613008602a83612438565b915061301382612fac565b604082019050919050565b6000602082019050818103600083015261303781612ffb565b9050919050565b7f4f776e61626c653a2063616c6c6572206973206e6f7420746865206f776e6572600082015250565b6000613074602083612438565b915061307f8261303e565b602082019050919050565b600060208201905081810360008301526130a381613067565b9050919050565b7f4e487b7100000000000000000000000000000000000000000000000000000000600052601260045260246000fd5b60006130e4826124e8565b91506130ef836124e8565b9250826130ff576130fe6130aa565b5b828204905092915050565b6000613115826124e8565b9150613120836124e8565b92508282101561313357613132612cbd565b5b828203905092915050565b6000613149826124e8565b9150613154836124e8565b9250817fffffffffffffffffffffffffffffffffffffffffffffffffffffffffffffffff048311821515161561318d5761318c612cbd565b5b828202905092915050565b600060ff82169050919050565b60006131b082613198565b91506131bb83613198565b92508260ff038211156131d1576131d0612cbd565b5b828201905092915050565b7f4f776e61626c653a206e6577206f776e657220697320746865207a65726f206160008201527f6464726573730000000000000000000000000000000000000000000000000000602082015250565b6000613238602683612438565b9150613243826131dc565b604082019050919050565b600060208201905081810360008301526132678161322b565b9050919050565b6000613279826124e8565b9150613284836124e8565b9250827fffffffffffffffffffffffffffffffffffffffffffffffffffffffffffffffff038211156132b9576132b8612cbd565b5b828201905092915050565b7f4552433732313a206f70657261746f7220717565727920666f72206e6f6e657860008201527f697374656e7420746f6b656e0000000000000000000000000000000000000000602082015250565b6000613320602c83612438565b915061332b826132c4565b604082019050919050565b6000602082019050818103600083015261334f81613313565b9050919050565b7f4552433732313a207472616e736665722066726f6d20696e636f72726563742060008201527f6f776e6572000000000000000000000000000000000000000000000000000000602082015250565b60006133b2602583612438565b91506133bd82613356565b604082019050919050565b600060208201905081810360008301526133e1816133a5565b9050919050565b7f4552433732313a207472616e7366657220746f20746865207a65726f2061646460008201527f7265737300000000000000000000000000000000000000000000000000000000602082015250565b6000613444602483612438565b915061344f826133e8565b604082019050919050565b6000602082019050818103600083015261347381613437565b9050919050565b7f4552433732313a20617070726f766520746f2063616c6c657200000000000000600082015250565b60006134b0601983612438565b91506134bb8261347a565b602082019050919050565b600060208201905081810360008301526134df816134a3565b9050919050565b7f4552433732313a207472616e7366657220746f206e6f6e20455243373231526560008201527f63656976657220696d706c656d656e7465720000000000000000000000000000602082015250565b6000613542603283612438565b915061354d826134e6565b604082019050919050565b6000602082019050818103600083015261357181613535565b9050919050565b600081519050919050565b600082825260208201905092915050565b600061359f82613578565b6135a98185613583565b93506135b9818560208601612449565b6135c28161247c565b840191505092915050565b60006080820190506135e2600083018761257d565b6135ef602083018661257d565b6135fc6040830185612613565b818103606083015261360e8184613594565b905095945050505050565b6000815190506136288161239e565b92915050565b60006020828403121561364457613643612368565b5b600061365284828501613619565b91505092915050565b7f4552433732313a206d696e7420746f20746865207a65726f2061646472657373600082015250565b6000613691602083612438565b915061369c8261365b565b602082019050919050565b600060208201905081810360008301526136c081613684565b9050919050565b7f4552433732313a20746f6b656e20616c7265616479206d696e74656400000000600082015250565b60006136fd601c83612438565b9150613708826136c7565b602082019050919050565b6000602082019050818103600083015261372c816136f0565b9050919050565b7f4e487b7100000000000000000000000000000000000000000000000000000000600052603160045260246000fdfe68747470733a2f2f62616679626569656b633533636264677772326d706f783676797333736f6566346b66636762796e626763797571616770643478743577336a6c712e697066732e647765622e6c696e6b2fa26469706673582212200869ca9cb4950ab7f4a5ce8dbac83a7ae7ef5870e14ad497b4afa2701355d5a264736f6c634300080c0033",
  "immutableReferences": {},
  "source": "// SPDX-License-Identifier: MIT\r\npragma solidity ^0.8.11;\r\n\r\nimport \"@openzeppelin/contracts/token/ERC721/ERC721.sol\";\r\nimport \"@openzeppelin/contracts/token/ERC721/extensions/ERC721Enumerable.sol\";\r\nimport \"@openzeppelin/contracts/access/Ownable.sol\";\r\n\r\ncontract BlockHead is ERC721, ERC721Enumerable, Ownable {\r\n    constructor() ERC721(\"BlockHead\", \"BH\") {}\r\n\r\n    uint256 tokenId = 1;\r\n\r\n    struct Attr {\r\n        string name;\r\n        string headType;\r\n        string headColor;\r\n        string bodyColor;\r\n        string backgroundColor;\r\n    }\r\n\r\n    function _beforeTokenTransfer(\r\n        address from,\r\n        address to,\r\n        uint256 _tokenId\r\n    ) internal override(ERC721, ERC721Enumerable) {\r\n        super._beforeTokenTransfer(from, to, _tokenId);\r\n    }\r\n\r\n    function supportsInterface(bytes4 interfaceId)\r\n        public\r\n        view\r\n        override(ERC721, ERC721Enumerable)\r\n        returns (bool)\r\n    {\r\n        return super.supportsInterface(interfaceId);\r\n    }\r\n\r\n    function mint() public payable {\r\n        require(tokenId <= 111, \"sold out\");\r\n        _safeMint(msg.sender, tokenId++);\r\n    }\r\n\r\n    /**\r\n     * @dev Returns an URI for a given token ID\r\n     */\r\n    function tokenURI(uint256 _tokenId)\r\n        public\r\n        pure\r\n        override(ERC721)\r\n        returns (string memory)\r\n    {\r\n        // return\r\n        //     \"bafybeibotgk3nnwcv5l44qzypseiganetlyirezietqorbqknc2w3vj3si.ipfs.dweb.link/\";\r\n        return\r\n            Concatenate(\r\n                Concatenate(\r\n                    \"https://bafybeiekc53cbdgwr2mpox6vys3soef4kfcgbynbgcyuqagpd4xt5w3jlq.ipfs.dweb.link/\",\r\n                    UintToString(_tokenId)\r\n                ),\r\n                \".json\"\r\n            );\r\n    }\r\n\r\n    function test() external pure returns (string memory) {\r\n        return \"test\";\r\n    }\r\n\r\n    function Concatenate(string memory a, string memory b)\r\n        public\r\n        pure\r\n        returns (string memory concatenatedString)\r\n    {\r\n        bytes memory bytesA = bytes(a);\r\n        bytes memory bytesB = bytes(b);\r\n        string memory concatenatedAB = new string(\r\n            bytesA.length + bytesB.length\r\n        );\r\n        bytes memory bytesAB = bytes(concatenatedAB);\r\n        uint256 concatendatedIndex = 0;\r\n        uint256 index = 0;\r\n        for (index = 0; index < bytesA.length; index++) {\r\n            bytesAB[concatendatedIndex++] = bytesA[index];\r\n        }\r\n        for (index = 0; index < bytesB.length; index++) {\r\n            bytesAB[concatendatedIndex++] = bytesB[index];\r\n        }\r\n\r\n        return string(bytesAB);\r\n    }\r\n\r\n    function UintToString(uint256 _i)\r\n        public\r\n        pure\r\n        returns (string memory uintAsString)\r\n    {\r\n        if (_i == 0) {\r\n            return \"0\";\r\n        }\r\n        uint256 j = _i;\r\n        uint256 len;\r\n        while (j != 0) {\r\n            len++;\r\n            j /= 10;\r\n        }\r\n        bytes memory bstr = new bytes(len);\r\n        uint256 k = len;\r\n        while (_i != 0) {\r\n            k = k - 1;\r\n            uint8 temp = (48 + uint8(_i - (_i / 10) * 10));\r\n            bytes1 b1 = bytes1(temp);\r\n            bstr[k] = b1;\r\n            _i /= 10;\r\n        }\r\n        return string(bstr);\r\n    }\r\n}\r\n\r\n// contract BlockHead is ERC721 {\r\n//     address public owner;\r\n//     uint256 tokenId = 1;\r\n//     uint256 mintPrice = 0.1 ether;\r\n//     uint256 totalSupply = 0;\r\n//     uint256 maxSupply = 111;\r\n//     uint256 maxPerWallet = 10;\r\n\r\n//     struct Block {\r\n//         uint256 tokenId;\r\n//         string tokenName;\r\n//         address owner;\r\n//     }\r\n\r\n//     Block[] public allTokens;\r\n\r\n//     mapping(address => uint256) public walletMints;\r\n\r\n//     constructor() ERC721(\"BlockHead\", \"BH\") {\r\n//         owner = msg.sender;\r\n//     }\r\n\r\n//     function getAllTokens() public view returns (Block[] memory) {\r\n//         return allTokens;\r\n//     }\r\n\r\n//     function mint(uint256 _quantity) public payable {\r\n//         require(msg.value == _quantity * mintPrice, \"wrong mint value\");\r\n//         require(totalSupply + _quantity <= maxSupply, \"max supply exceeded\");\r\n//         require(\r\n//             walletMints[msg.sender] + _quantity <= maxPerWallet,\r\n//             \"exceeded mint for this wallet\"\r\n//         );\r\n\r\n//         for (uint256 i = 0; i < _quantity; i++) {\r\n//             uint256 newTokenId = totalSupply++;\r\n//             _safeMint(msg.sender, newTokenId);\r\n//             walletMints[msg.sender]++;\r\n//             allTokens.push(Block(newTokenId, \"Block Head\", msg.sender));\r\n//         }\r\n//     }\r\n// }\r\n",
  "sourcePath": "E:\\Main Data\\Project Files\\web3\\solidity\\nft2\\contracts\\BlockHead.sol",
  "compiler": {
    "name": "solc",
    "version": "0.8.12+commit.f00d7308.Emscripten.clang"
  },
  "schemaVersion": "3.4.5",
  "updatedAt": "2022-03-09T16:12:47.473Z",
  "networkType": "ethereum",
  "devdoc": {
    "kind": "dev",
    "methods": {
      "approve(address,uint256)": {
        "details": "See {IERC721-approve}."
      },
      "balanceOf(address)": {
        "details": "See {IERC721-balanceOf}."
      },
      "getApproved(uint256)": {
        "details": "See {IERC721-getApproved}."
      },
      "isApprovedForAll(address,address)": {
        "details": "See {IERC721-isApprovedForAll}."
      },
      "name()": {
        "details": "See {IERC721Metadata-name}."
      },
      "owner()": {
        "details": "Returns the address of the current owner."
      },
      "ownerOf(uint256)": {
        "details": "See {IERC721-ownerOf}."
      },
      "renounceOwnership()": {
        "details": "Leaves the contract without owner. It will not be possible to call `onlyOwner` functions anymore. Can only be called by the current owner. NOTE: Renouncing ownership will leave the contract without an owner, thereby removing any functionality that is only available to the owner."
      },
      "safeTransferFrom(address,address,uint256)": {
        "details": "See {IERC721-safeTransferFrom}."
      },
      "safeTransferFrom(address,address,uint256,bytes)": {
        "details": "See {IERC721-safeTransferFrom}."
      },
      "setApprovalForAll(address,bool)": {
        "details": "See {IERC721-setApprovalForAll}."
      },
      "symbol()": {
        "details": "See {IERC721Metadata-symbol}."
      },
      "tokenByIndex(uint256)": {
        "details": "See {IERC721Enumerable-tokenByIndex}."
      },
      "tokenOfOwnerByIndex(address,uint256)": {
        "details": "See {IERC721Enumerable-tokenOfOwnerByIndex}."
      },
      "tokenURI(uint256)": {
        "details": "Returns an URI for a given token ID"
      },
      "totalSupply()": {
        "details": "See {IERC721Enumerable-totalSupply}."
      },
      "transferFrom(address,address,uint256)": {
        "details": "See {IERC721-transferFrom}."
      },
      "transferOwnership(address)": {
        "details": "Transfers ownership of the contract to a new account (`newOwner`). Can only be called by the current owner."
      }
    },
    "version": 1
  },
  "userdoc": {
    "kind": "user",
    "methods": {},
    "version": 1
  }
}