{
  "contractName": "Stringss",
  "abi": [
    {
      "inputs": [
        {
          "internalType": "string",
          "name": "a",
          "type": "string"
        },
        {
          "internalType": "string",
          "name": "b",
          "type": "string"
        }
      ],
      "name": "Concatenate",
      "outputs": [
        {
          "internalType": "string",
          "name": "concatenatedString",
          "type": "string"
        }
      ],
      "stateMutability": "pure",
      "type": "function"
    },
    {
      "inputs": [
        {
          "internalType": "uint256",
          "name": "value",
          "type": "uint256"
        }
      ],
      "name": "UintToString",
      "outputs": [
        {
          "internalType": "string",
          "name": "uintAsString",
          "type": "string"
        }
      ],
      "stateMutability": "pure",
      "type": "function"
    }
  ],
  "bytecode": "0x6108b8610053600b82828239805160001a607314610046577f4e487b7100000000000000000000000000000000000000000000000000000000600052600060045260246000fd5b30600052607381538281f3fe73000000000000000000000000000000000000000030146080604052600436106100405760003560e01c8063a76d54ff14610045578063f8dc055814610075575b600080fd5b61005f600480360381019061005a9190610401565b6100a5565b60405161006c91906104c7565b60405180910390f35b61008f600480360381019061008a919061061e565b61021c565b60405161009c91906104c7565b60405180910390f35b6060600082905060008114156100f3576040518060400160405280600181526020017f3000000000000000000000000000000000000000000000000000000000000000815250915050610217565b600081905060005b6000821461012557808061010e906106c5565b915050600a8261011e919061073d565b91506100fb565b60008167ffffffffffffffff811115610141576101406104f3565b5b6040519080825280601f01601f1916602001820160405280156101735781602001600182028036833780820191505090505b5090506000600183610185919061076e565b90505b6000851461020e57600a8561019d91906107a2565b60306101a991906107d3565b60f81b8282806101b890610829565b9350815181106101cb576101ca610853565b5b60200101907effffffffffffffffffffffffffffffffffffffffffffffffffffffffffffff1916908160001a905350600a85610207919061073d565b9450610188565b81955050505050505b919050565b60606000839050600083905060008151835161023891906107d3565b67ffffffffffffffff811115610251576102506104f3565b5b6040519080825280601f01601f1916602001820160405280156102835781602001600182028036833780820191505090505b5090506000819050600080600090505b855181101561031b578581815181106102af576102ae610853565b5b602001015160f81c60f81b8383806102c6906106c5565b9450815181106102d9576102d8610853565b5b60200101907effffffffffffffffffffffffffffffffffffffffffffffffffffffffffffff1916908160001a9053508080610313906106c5565b915050610293565b600090505b84518110156103a85784818151811061033c5761033b610853565b5b602001015160f81c60f81b838380610353906106c5565b94508151811061036657610365610853565b5b60200101907effffffffffffffffffffffffffffffffffffffffffffffffffffffffffffff1916908160001a90535080806103a0906106c5565b915050610320565b82965050505050505092915050565b6000604051905090565b600080fd5b600080fd5b6000819050919050565b6103de816103cb565b81146103e957600080fd5b50565b6000813590506103fb816103d5565b92915050565b600060208284031215610417576104166103c1565b5b6000610425848285016103ec565b91505092915050565b600081519050919050565b600082825260208201905092915050565b60005b8381101561046857808201518184015260208101905061044d565b83811115610477576000848401525b50505050565b6000601f19601f8301169050919050565b60006104998261042e565b6104a38185610439565b93506104b381856020860161044a565b6104bc8161047d565b840191505092915050565b600060208201905081810360008301526104e1818461048e565b905092915050565b600080fd5b600080fd5b7f4e487b7100000000000000000000000000000000000000000000000000000000600052604160045260246000fd5b61052b8261047d565b810181811067ffffffffffffffff8211171561054a576105496104f3565b5b80604052505050565b600061055d6103b7565b90506105698282610522565b919050565b600067ffffffffffffffff821115610589576105886104f3565b5b6105928261047d565b9050602081019050919050565b82818337600083830152505050565b60006105c16105bc8461056e565b610553565b9050828152602081018484840111156105dd576105dc6104ee565b5b6105e884828561059f565b509392505050565b600082601f830112610605576106046104e9565b5b81356106158482602086016105ae565b91505092915050565b60008060408385031215610635576106346103c1565b5b600083013567ffffffffffffffff811115610653576106526103c6565b5b61065f858286016105f0565b925050602083013567ffffffffffffffff8111156106805761067f6103c6565b5b61068c858286016105f0565b9150509250929050565b7f4e487b7100000000000000000000000000000000000000000000000000000000600052601160045260246000fd5b60006106d0826103cb565b91507fffffffffffffffffffffffffffffffffffffffffffffffffffffffffffffffff82141561070357610702610696565b5b600182019050919050565b7f4e487b7100000000000000000000000000000000000000000000000000000000600052601260045260246000fd5b6000610748826103cb565b9150610753836103cb565b9250826107635761076261070e565b5b828204905092915050565b6000610779826103cb565b9150610784836103cb565b92508282101561079757610796610696565b5b828203905092915050565b60006107ad826103cb565b91506107b8836103cb565b9250826107c8576107c761070e565b5b828206905092915050565b60006107de826103cb565b91506107e9836103cb565b9250827fffffffffffffffffffffffffffffffffffffffffffffffffffffffffffffffff0382111561081e5761081d610696565b5b828201905092915050565b6000610834826103cb565b9150600082141561084857610847610696565b5b600182039050919050565b7f4e487b7100000000000000000000000000000000000000000000000000000000600052603260045260246000fdfea2646970667358221220db4d05ab9e51ec1b4fcd89208d80a00e38e54c3ed11f6c1b9436f2b4e2c2d2a864736f6c634300080c0033",
  "immutableReferences": {},
  "source": "library Stringss {\r\n    // via https://github.com/oraclize/ethereum-api/blob/master/oraclizeAPI_0.5.sol MIT licence\r\n\r\n    function Concatenate(string memory a, string memory b)\r\n        public\r\n        pure\r\n        returns (string memory concatenatedString)\r\n    {\r\n        bytes memory bytesA = bytes(a);\r\n        bytes memory bytesB = bytes(b);\r\n        string memory concatenatedAB = new string(\r\n            bytesA.length + bytesB.length\r\n        );\r\n        bytes memory bytesAB = bytes(concatenatedAB);\r\n        uint256 concatendatedIndex = 0;\r\n        uint256 index = 0;\r\n        for (index = 0; index < bytesA.length; index++) {\r\n            bytesAB[concatendatedIndex++] = bytesA[index];\r\n        }\r\n        for (index = 0; index < bytesB.length; index++) {\r\n            bytesAB[concatendatedIndex++] = bytesB[index];\r\n        }\r\n\r\n        return string(bytesAB);\r\n    }\r\n\r\n    function UintToString(uint256 value)\r\n        public\r\n        pure\r\n        returns (string memory uintAsString)\r\n    {\r\n        uint256 tempValue = value;\r\n\r\n        if (tempValue == 0) {\r\n            return \"0\";\r\n        }\r\n        uint256 j = tempValue;\r\n        uint256 length;\r\n        while (j != 0) {\r\n            length++;\r\n            j /= 10;\r\n        }\r\n        bytes memory byteString = new bytes(length);\r\n        uint256 index = length - 1;\r\n        while (tempValue != 0) {\r\n            byteString[index--] = bytes1(uint8(48 + (tempValue % 10)));\r\n            tempValue /= 10;\r\n        }\r\n        return string(byteString);\r\n    }\r\n}\r\n",
  "sourcePath": "E:\\Main Data\\Project Files\\web3\\solidity\\nft2\\contracts\\Stringss.sol",
  "compiler": {
    "name": "solc",
    "version": "0.8.12+commit.f00d7308.Emscripten.clang"
  },
  "schemaVersion": "3.4.5",
  "updatedAt": "2022-03-09T13:02:02.590Z",
  "devdoc": {
    "kind": "dev",
    "methods": {},
    "version": 1
  },
  "userdoc": {
    "kind": "user",
    "methods": {},
    "version": 1
  }
}